{
  "contractName": "Dex",
  "abi": [
    {
      "anonymous": false,
      "inputs": [
        {
          "indexed": true,
          "internalType": "address",
          "name": "previousOwner",
          "type": "address"
        },
        {
          "indexed": true,
          "internalType": "address",
          "name": "newOwner",
          "type": "address"
        }
      ],
      "name": "OwnershipTransferred",
      "type": "event"
    },
    {
      "inputs": [
        {
          "internalType": "bytes32",
          "name": "ticker",
          "type": "bytes32"
        },
        {
          "internalType": "address",
          "name": "tokenAddress",
          "type": "address"
        }
      ],
      "name": "addToken",
      "outputs": [],
      "stateMutability": "nonpayable",
      "type": "function"
    },
    {
      "inputs": [
        {
          "internalType": "address",
          "name": "",
          "type": "address"
        },
        {
          "internalType": "bytes32",
          "name": "",
          "type": "bytes32"
        }
      ],
      "name": "balances",
      "outputs": [
        {
          "internalType": "uint256",
          "name": "",
          "type": "uint256"
        }
      ],
      "stateMutability": "view",
      "type": "function",
      "constant": true
    },
    {
      "inputs": [
        {
          "internalType": "uint256",
          "name": "amount",
          "type": "uint256"
        },
        {
          "internalType": "bytes32",
          "name": "ticker",
          "type": "bytes32"
        }
      ],
      "name": "deposit",
      "outputs": [],
      "stateMutability": "nonpayable",
      "type": "function"
    },
    {
      "inputs": [],
      "name": "nextOrderId",
      "outputs": [
        {
          "internalType": "uint256",
          "name": "",
          "type": "uint256"
        }
      ],
      "stateMutability": "view",
      "type": "function",
      "constant": true
    },
    {
      "inputs": [
        {
          "internalType": "bytes32",
          "name": "",
          "type": "bytes32"
        },
        {
          "internalType": "uint256",
          "name": "",
          "type": "uint256"
        },
        {
          "internalType": "uint256",
          "name": "",
          "type": "uint256"
        }
      ],
      "name": "orderBook",
      "outputs": [
        {
          "internalType": "uint256",
          "name": "id",
          "type": "uint256"
        },
        {
          "internalType": "address",
          "name": "trader",
          "type": "address"
        },
        {
          "internalType": "enum Dex.Side",
          "name": "side",
          "type": "uint8"
        },
        {
          "internalType": "bytes32",
          "name": "ticker",
          "type": "bytes32"
        },
        {
          "internalType": "uint256",
          "name": "amount",
          "type": "uint256"
        },
        {
          "internalType": "uint256",
          "name": "price",
          "type": "uint256"
        },
        {
          "internalType": "uint256",
          "name": "filled",
          "type": "uint256"
        }
      ],
      "stateMutability": "view",
      "type": "function",
      "constant": true
    },
    {
      "inputs": [],
      "name": "owner",
      "outputs": [
        {
          "internalType": "address",
          "name": "",
          "type": "address"
        }
      ],
      "stateMutability": "view",
      "type": "function",
      "constant": true
    },
    {
      "inputs": [],
      "name": "renounceOwnership",
      "outputs": [],
      "stateMutability": "nonpayable",
      "type": "function"
    },
    {
      "inputs": [
        {
          "internalType": "uint256",
          "name": "",
          "type": "uint256"
        }
      ],
      "name": "tokenList",
      "outputs": [
        {
          "internalType": "bytes32",
          "name": "",
          "type": "bytes32"
        }
      ],
      "stateMutability": "view",
      "type": "function",
      "constant": true
    },
    {
      "inputs": [
        {
          "internalType": "bytes32",
          "name": "",
          "type": "bytes32"
        }
      ],
      "name": "tokenMapping",
      "outputs": [
        {
          "internalType": "bytes32",
          "name": "ticker",
          "type": "bytes32"
        },
        {
          "internalType": "address",
          "name": "tokenAddress",
          "type": "address"
        }
      ],
      "stateMutability": "view",
      "type": "function",
      "constant": true
    },
    {
      "inputs": [
        {
          "internalType": "address",
          "name": "newOwner",
          "type": "address"
        }
      ],
      "name": "transferOwnership",
      "outputs": [],
      "stateMutability": "nonpayable",
      "type": "function"
    },
    {
      "inputs": [
        {
          "internalType": "uint256",
          "name": "amount",
          "type": "uint256"
        },
        {
          "internalType": "bytes32",
          "name": "ticker",
          "type": "bytes32"
        }
      ],
      "name": "withdraw",
      "outputs": [],
      "stateMutability": "nonpayable",
      "type": "function"
    },
    {
      "inputs": [
        {
          "internalType": "bytes32",
          "name": "ticker",
          "type": "bytes32"
        },
        {
          "internalType": "enum Dex.Side",
          "name": "side",
          "type": "uint8"
        }
      ],
      "name": "getOrderBook",
      "outputs": [
        {
          "components": [
            {
              "internalType": "uint256",
              "name": "id",
              "type": "uint256"
            },
            {
              "internalType": "address",
              "name": "trader",
              "type": "address"
            },
            {
              "internalType": "enum Dex.Side",
              "name": "side",
              "type": "uint8"
            },
            {
              "internalType": "bytes32",
              "name": "ticker",
              "type": "bytes32"
            },
            {
              "internalType": "uint256",
              "name": "amount",
              "type": "uint256"
            },
            {
              "internalType": "uint256",
              "name": "price",
              "type": "uint256"
            },
            {
              "internalType": "uint256",
              "name": "filled",
              "type": "uint256"
            }
          ],
          "internalType": "struct Dex.Order[]",
          "name": "",
          "type": "tuple[]"
        }
      ],
      "stateMutability": "view",
      "type": "function",
      "constant": true
    },
    {
      "inputs": [
        {
          "internalType": "enum Dex.Side",
          "name": "side",
          "type": "uint8"
        },
        {
          "internalType": "bytes32",
          "name": "ticker",
          "type": "bytes32"
        },
        {
          "internalType": "uint256",
          "name": "amount",
          "type": "uint256"
        },
        {
          "internalType": "uint256",
          "name": "price",
          "type": "uint256"
        }
      ],
      "name": "createLimitOrder",
      "outputs": [],
      "stateMutability": "nonpayable",
      "type": "function"
    },
    {
      "inputs": [],
      "name": "depositEth",
      "outputs": [],
      "stateMutability": "payable",
      "type": "function",
      "payable": true
    },
    {
      "inputs": [
        {
          "internalType": "enum Dex.Side",
          "name": "side",
          "type": "uint8"
        },
        {
          "internalType": "bytes32",
          "name": "ticker",
          "type": "bytes32"
        },
        {
          "internalType": "uint256",
          "name": "amount",
          "type": "uint256"
        }
      ],
      "name": "createMarketOrder",
      "outputs": [],
      "stateMutability": "nonpayable",
      "type": "function"
    }
  ],
  "bytecode": "0x608060405260006004553480156200001657600080fd5b50600062000029620000cd60201b60201c565b9050806000806101000a81548173ffffffffffffffffffffffffffffffffffffffff021916908373ffffffffffffffffffffffffffffffffffffffff1602179055508073ffffffffffffffffffffffffffffffffffffffff16600073ffffffffffffffffffffffffffffffffffffffff167f8be0079c531659141344cd1fd0a4f28419497f9722a3daafe3b4186f6b6457e060405160405180910390a350620000d5565b600033905090565b6134f880620000e56000396000f3fe6080604052600436106100e85760003560e01c80638da5cb5b1161008a578063a8d2021a11610059578063a8d2021a146102da578063ba58ea6814610303578063c9630cb014610340578063f2fde38b14610369576100e8565b80638da5cb5b146102205780639776aacf1461024b57806399ec2f1c146102745780639ead72221461029d576100e8565b8063439370b1116100c6578063439370b114610198578063667cb4ba146101a25780636f3b62f9146101e0578063715018a614610209576100e8565b80630bb431b6146100ed5780631f14df69146101305780632a58b3301461016d575b600080fd5b3480156100f957600080fd5b50610114600480360381019061010f9190612ac6565b610392565b6040516101279796959493929190613007565b60405180910390f35b34801561013c57600080fd5b50610157600480360381019061015291906129ac565b61042b565b6040516101649190612fec565b60405180910390f35b34801561017957600080fd5b50610182610450565b60405161018f9190612fec565b60405180910390f35b6101a0610456565b005b3480156101ae57600080fd5b506101c960048036038101906101c49190612a19565b610548565b6040516101d7929190612f23565b60405180910390f35b3480156101ec57600080fd5b5061020760048036038101906102029190612b6c565b61058c565b005b34801561021557600080fd5b5061021e610fcc565b005b34801561022c57600080fd5b50610235611106565b6040516102429190612e6b565b60405180910390f35b34801561025757600080fd5b50610272600480360381019061026d9190612a46565b61112f565b005b34801561028057600080fd5b5061029b60048036038101906102969190612b19565b61126a565b005b3480156102a957600080fd5b506102c460048036038101906102bf9190612bd3565b6120d9565b6040516102d19190612f08565b60405180910390f35b3480156102e657600080fd5b5061030160048036038101906102fc9190612c00565b6120fd565b005b34801561030f57600080fd5b5061032a60048036038101906103259190612a86565b6123b7565b6040516103379190612ee6565b60405180910390f35b34801561034c57600080fd5b5061036760048036038101906103629190612c00565b612510565b005b34801561037557600080fd5b50610390600480360381019061038b919061297f565b612739565b005b600560205282600052604060002060205281600052604060002081815481106103ba57600080fd5b906000526020600020906006020160009250925050508060000154908060010160009054906101000a900473ffffffffffffffffffffffffffffffffffffffff16908060010160149054906101000a900460ff16908060020154908060030154908060040154908060050154905087565b6003602052816000526040600020602052806000526040600020600091509150505481565b60045481565b34600360003373ffffffffffffffffffffffffffffffffffffffff1673ffffffffffffffffffffffffffffffffffffffff16815260200190815260200160002060007f45544800000000000000000000000000000000000000000000000000000000008152602001908152602001600020546104d291906130c0565b600360003373ffffffffffffffffffffffffffffffffffffffff1673ffffffffffffffffffffffffffffffffffffffff16815260200190815260200160002060007f4554480000000000000000000000000000000000000000000000000000000000815260200190815260200160002081905550565b60016020528060005260406000206000915090508060000154908060010160009054906101000a900473ffffffffffffffffffffffffffffffffffffffff16905082565b600060018111156105a05761059f6132bd565b5b8460018111156105b3576105b26132bd565b5b14156106465780826105c59190613116565b600360003373ffffffffffffffffffffffffffffffffffffffff1673ffffffffffffffffffffffffffffffffffffffff16815260200190815260200160002060007f4554480000000000000000000000000000000000000000000000000000000000815260200190815260200160002054101561064157600080fd5b6106d1565b600180811115610659576106586132bd565b5b84600181111561066c5761066b6132bd565b5b14156106d05781600360003373ffffffffffffffffffffffffffffffffffffffff1673ffffffffffffffffffffffffffffffffffffffff16815260200190815260200160002060008581526020019081526020016000205410156106cf57600080fd5b5b5b60006005600085815260200190815260200160002060008660018111156106fb576106fa6132bd565b5b81526020019081526020016000209050806040518060e0016040528060045481526020013373ffffffffffffffffffffffffffffffffffffffff16815260200187600181111561074e5761074d6132bd565b5b8152602001868152602001858152602001848152602001600081525090806001815401808255809150506001900390600052602060002090600602016000909190919091506000820151816000015560208201518160010160006101000a81548173ffffffffffffffffffffffffffffffffffffffff021916908373ffffffffffffffffffffffffffffffffffffffff16021790555060408201518160010160146101000a81548160ff0219169083600181111561080f5761080e6132bd565b5b0217905550606082015181600201556080820151816003015560a0820151816004015560c082015181600501555050600080828054905011610852576000610864565b600182805490506108639190613170565b5b90506000600181111561087a576108796132bd565b5b86600181111561088d5761088c6132bd565b5b1415610c0b575b6000811115610c06578181815481106108b0576108af61331b565b5b906000526020600020906006020160040154826001836108d09190613170565b815481106108e1576108e061331b565b5b90600052602060002090600602016004015411156108fe57610c06565b60008282815481106109135761091261331b565b5b90600052602060002090600602016040518060e0016040529081600082015481526020016001820160009054906101000a900473ffffffffffffffffffffffffffffffffffffffff1673ffffffffffffffffffffffffffffffffffffffff1673ffffffffffffffffffffffffffffffffffffffff1681526020016001820160149054906101000a900460ff1660018111156109b1576109b06132bd565b5b60018111156109c3576109c26132bd565b5b81526020016002820154815260200160038201548152602001600482015481526020016005820154815250509050826001836109ff9190613170565b81548110610a1057610a0f61331b565b5b9060005260206000209060060201838381548110610a3157610a3061331b565b5b9060005260206000209060060201600082015481600001556001820160009054906101000a900473ffffffffffffffffffffffffffffffffffffffff168160010160006101000a81548173ffffffffffffffffffffffffffffffffffffffff021916908373ffffffffffffffffffffffffffffffffffffffff1602179055506001820160149054906101000a900460ff168160010160146101000a81548160ff02191690836001811115610ae857610ae76132bd565b5b0217905550600282015481600201556003820154816003015560048201548160040155600582015481600501559050508083600184610b279190613170565b81548110610b3857610b3761331b565b5b90600052602060002090600602016000820151816000015560208201518160010160006101000a81548173ffffffffffffffffffffffffffffffffffffffff021916908373ffffffffffffffffffffffffffffffffffffffff16021790555060408201518160010160146101000a81548160ff02191690836001811115610bc257610bc16132bd565b5b0217905550606082015181600201556080820151816003015560a0820151816004015560c082015181600501559050508180610bfd9061321b565b92505050610894565b610fac565b600180811115610c1e57610c1d6132bd565b5b866001811115610c3157610c306132bd565b5b1415610fab575b6000811115610faa57818181548110610c5457610c5361331b565b5b90600052602060002090600602016004015482600183610c749190613170565b81548110610c8557610c8461331b565b5b9060005260206000209060060201600401541015610ca257610faa565b6000828281548110610cb757610cb661331b565b5b90600052602060002090600602016040518060e0016040529081600082015481526020016001820160009054906101000a900473ffffffffffffffffffffffffffffffffffffffff1673ffffffffffffffffffffffffffffffffffffffff1673ffffffffffffffffffffffffffffffffffffffff1681526020016001820160149054906101000a900460ff166001811115610d5557610d546132bd565b5b6001811115610d6757610d666132bd565b5b8152602001600282015481526020016003820154815260200160048201548152602001600582015481525050905082600183610da39190613170565b81548110610db457610db361331b565b5b9060005260206000209060060201838381548110610dd557610dd461331b565b5b9060005260206000209060060201600082015481600001556001820160009054906101000a900473ffffffffffffffffffffffffffffffffffffffff168160010160006101000a81548173ffffffffffffffffffffffffffffffffffffffff021916908373ffffffffffffffffffffffffffffffffffffffff1602179055506001820160149054906101000a900460ff168160010160146101000a81548160ff02191690836001811115610e8c57610e8b6132bd565b5b0217905550600282015481600201556003820154816003015560048201548160040155600582015481600501559050508083600184610ecb9190613170565b81548110610edc57610edb61331b565b5b90600052602060002090600602016000820151816000015560208201518160010160006101000a81548173ffffffffffffffffffffffffffffffffffffffff021916908373ffffffffffffffffffffffffffffffffffffffff16021790555060408201518160010160146101000a81548160ff02191690836001811115610f6657610f656132bd565b5b0217905550606082015181600201556080820151816003015560a0820151816004015560c082015181600501559050508180610fa19061321b565b92505050610c38565b5b5b60046000815480929190610fbf90613245565b9190505550505050505050565b610fd46128e2565b73ffffffffffffffffffffffffffffffffffffffff16610ff2611106565b73ffffffffffffffffffffffffffffffffffffffff1614611048576040517f08c379a000000000000000000000000000000000000000000000000000000000815260040161103f90612fac565b60405180910390fd5b600073ffffffffffffffffffffffffffffffffffffffff1660008054906101000a900473ffffffffffffffffffffffffffffffffffffffff1673ffffffffffffffffffffffffffffffffffffffff167f8be0079c531659141344cd1fd0a4f28419497f9722a3daafe3b4186f6b6457e060405160405180910390a360008060006101000a81548173ffffffffffffffffffffffffffffffffffffffff021916908373ffffffffffffffffffffffffffffffffffffffff160217905550565b60008060009054906101000a900473ffffffffffffffffffffffffffffffffffffffff16905090565b6111376128e2565b73ffffffffffffffffffffffffffffffffffffffff16611155611106565b73ffffffffffffffffffffffffffffffffffffffff16146111ab576040517f08c379a00000000000000000000000000000000000000000000000000000000081526004016111a290612fac565b60405180910390fd5b60405180604001604052808381526020018273ffffffffffffffffffffffffffffffffffffffff16815250600160008481526020019081526020016000206000820151816000015560208201518160010160006101000a81548173ffffffffffffffffffffffffffffffffffffffff021916908373ffffffffffffffffffffffffffffffffffffffff16021790555090505060028290806001815401808255809150506001900390600052602060002001600090919091909150555050565b6000600181111561127e5761127d6132bd565b5b836001811115611291576112906132bd565b5b141561132b5780600360003373ffffffffffffffffffffffffffffffffffffffff1673ffffffffffffffffffffffffffffffffffffffff168152602001908152602001600020600084815260200190815260200160002054101561132a576040517f08c379a000000000000000000000000000000000000000000000000000000000815260040161132190612f8c565b60405180910390fd5b5b60008060018111156113405761133f6132bd565b5b846001811115611353576113526132bd565b5b14156113625760019050611367565b600090505b600060056000858152602001908152602001600020600083815260200190815260200160002090506000805b8280549050811080156113a557508482105b15611e8557600082866113b89190613170565b905060008483815481106113cf576113ce61331b565b5b9060005260206000209060060201600501548584815481106113f4576113f361331b565b5b9060005260206000209060060201600301546114109190613170565b905060008282111561142457829050611428565b8190505b808561143491906130c0565b94508086858154811061144a5761144961331b565b5b90600052602060002090600602016005015461146691906130c0565b8685815481106114795761147861331b565b5b90600052602060002090600602016005018190555060008685815481106114a3576114a261331b565b5b906000526020600020906006020160040154826114c09190613116565b9050600060018111156114d6576114d56132bd565b5b8b60018111156114e9576114e86132bd565b5b14156119f0578685815481106115025761150161331b565b5b9060005260206000209060060201600401548261151f9190613116565b600360003373ffffffffffffffffffffffffffffffffffffffff1673ffffffffffffffffffffffffffffffffffffffff16815260200190815260200160002060007f4554480000000000000000000000000000000000000000000000000000000000815260200190815260200160002054101561159b57600080fd5b81600360003373ffffffffffffffffffffffffffffffffffffffff1673ffffffffffffffffffffffffffffffffffffffff16815260200190815260200160002060008c8152602001908152602001600020546115f791906130c0565b600360003373ffffffffffffffffffffffffffffffffffffffff1673ffffffffffffffffffffffffffffffffffffffff16815260200190815260200160002060008c81526020019081526020016000208190555080600360003373ffffffffffffffffffffffffffffffffffffffff1673ffffffffffffffffffffffffffffffffffffffff16815260200190815260200160002060007f45544800000000000000000000000000000000000000000000000000000000008152602001908152602001600020546116c79190613170565b600360003373ffffffffffffffffffffffffffffffffffffffff1673ffffffffffffffffffffffffffffffffffffffff16815260200190815260200160002060007f455448000000000000000000000000000000000000000000000000000000000081526020019081526020016000208190555081600360008988815481106117535761175261331b565b5b906000526020600020906006020160010160009054906101000a900473ffffffffffffffffffffffffffffffffffffffff1673ffffffffffffffffffffffffffffffffffffffff1673ffffffffffffffffffffffffffffffffffffffff16815260200190815260200160002060008c8152602001908152602001600020546117db9190613170565b600360008988815481106117f2576117f161331b565b5b906000526020600020906006020160010160009054906101000a900473ffffffffffffffffffffffffffffffffffffffff1673ffffffffffffffffffffffffffffffffffffffff1673ffffffffffffffffffffffffffffffffffffffff16815260200190815260200160002060008c815260200190815260200160002081905550806003600089888154811061188b5761188a61331b565b5b906000526020600020906006020160010160009054906101000a900473ffffffffffffffffffffffffffffffffffffffff1673ffffffffffffffffffffffffffffffffffffffff1673ffffffffffffffffffffffffffffffffffffffff16815260200190815260200160002060007f455448000000000000000000000000000000000000000000000000000000000081526020019081526020016000205461193391906130c0565b6003600089888154811061194a5761194961331b565b5b906000526020600020906006020160010160009054906101000a900473ffffffffffffffffffffffffffffffffffffffff1673ffffffffffffffffffffffffffffffffffffffff1673ffffffffffffffffffffffffffffffffffffffff16815260200190815260200160002060007f4554480000000000000000000000000000000000000000000000000000000000815260200190815260200160002081905550611e6e565b600180811115611a0357611a026132bd565b5b8b6001811115611a1657611a156132bd565b5b1415611e6d5781600360003373ffffffffffffffffffffffffffffffffffffffff1673ffffffffffffffffffffffffffffffffffffffff16815260200190815260200160002060008c815260200190815260200160002054611a789190613170565b600360003373ffffffffffffffffffffffffffffffffffffffff1673ffffffffffffffffffffffffffffffffffffffff16815260200190815260200160002060008c81526020019081526020016000208190555080600360003373ffffffffffffffffffffffffffffffffffffffff1673ffffffffffffffffffffffffffffffffffffffff16815260200190815260200160002060007f4554480000000000000000000000000000000000000000000000000000000000815260200190815260200160002054611b4891906130c0565b600360003373ffffffffffffffffffffffffffffffffffffffff1673ffffffffffffffffffffffffffffffffffffffff16815260200190815260200160002060007f45544800000000000000000000000000000000000000000000000000000000008152602001908152602001600020819055508160036000898881548110611bd457611bd361331b565b5b906000526020600020906006020160010160009054906101000a900473ffffffffffffffffffffffffffffffffffffffff1673ffffffffffffffffffffffffffffffffffffffff1673ffffffffffffffffffffffffffffffffffffffff16815260200190815260200160002060008c815260200190815260200160002054611c5c91906130c0565b60036000898881548110611c7357611c7261331b565b5b906000526020600020906006020160010160009054906101000a900473ffffffffffffffffffffffffffffffffffffffff1673ffffffffffffffffffffffffffffffffffffffff1673ffffffffffffffffffffffffffffffffffffffff16815260200190815260200160002060008c8152602001908152602001600020819055508060036000898881548110611d0c57611d0b61331b565b5b906000526020600020906006020160010160009054906101000a900473ffffffffffffffffffffffffffffffffffffffff1673ffffffffffffffffffffffffffffffffffffffff1673ffffffffffffffffffffffffffffffffffffffff16815260200190815260200160002060007f4554480000000000000000000000000000000000000000000000000000000000815260200190815260200160002054611db49190613170565b60036000898881548110611dcb57611dca61331b565b5b906000526020600020906006020160010160009054906101000a900473ffffffffffffffffffffffffffffffffffffffff1673ffffffffffffffffffffffffffffffffffffffff1673ffffffffffffffffffffffffffffffffffffffff16815260200190815260200160002060007f45544800000000000000000000000000000000000000000000000000000000008152602001908152602001600020819055505b5b505050508080611e7d90613245565b915050611393565b505b60008280549050118015611ee4575081600081548110611eaa57611ea961331b565b5b90600052602060002090600602016003015482600081548110611ed057611ecf61331b565b5b906000526020600020906006020160050154145b156120d15760005b60018380549050611efd9190613170565b81101561203e5782600182611f1291906130c0565b81548110611f2357611f2261331b565b5b9060005260206000209060060201838281548110611f4457611f4361331b565b5b9060005260206000209060060201600082015481600001556001820160009054906101000a900473ffffffffffffffffffffffffffffffffffffffff168160010160006101000a81548173ffffffffffffffffffffffffffffffffffffffff021916908373ffffffffffffffffffffffffffffffffffffffff1602179055506001820160149054906101000a900460ff168160010160146101000a81548160ff02191690836001811115611ffb57611ffa6132bd565b5b021790555060028201548160020155600382015481600301556004820154816004015560058201548160050155905050808061203690613245565b915050611eec565b50818054806120505761204f6132ec565b5b60019003818190600052602060002090600602016000808201600090556001820160006101000a81549073ffffffffffffffffffffffffffffffffffffffff02191690556001820160146101000a81549060ff0219169055600282016000905560038201600090556004820160009055600582016000905550509055611e87565b505050505050565b600281815481106120e957600080fd5b906000526020600020016000915090505481565b80600073ffffffffffffffffffffffffffffffffffffffff166001600083815260200190815260200160002060010160009054906101000a900473ffffffffffffffffffffffffffffffffffffffff1673ffffffffffffffffffffffffffffffffffffffff1614156121a4576040517f08c379a000000000000000000000000000000000000000000000000000000000815260040161219b90612f6c565b60405180910390fd5b82600360003373ffffffffffffffffffffffffffffffffffffffff1673ffffffffffffffffffffffffffffffffffffffff1681526020019081526020016000206000848152602001908152602001600020541015612237576040517f08c379a000000000000000000000000000000000000000000000000000000000815260040161222e90612fcc565b60405180910390fd5b61229a83600360003373ffffffffffffffffffffffffffffffffffffffff1673ffffffffffffffffffffffffffffffffffffffff1681526020019081526020016000206000858152602001908152602001600020546128ea90919063ffffffff16565b600360003373ffffffffffffffffffffffffffffffffffffffff1673ffffffffffffffffffffffffffffffffffffffff1681526020019081526020016000206000848152602001908152602001600020819055506001600083815260200190815260200160002060010160009054906101000a900473ffffffffffffffffffffffffffffffffffffffff1673ffffffffffffffffffffffffffffffffffffffff1663a9059cbb33856040518363ffffffff1660e01b815260040161235f929190612ebd565b602060405180830381600087803b15801561237957600080fd5b505af115801561238d573d6000803e3d6000fd5b505050506040513d601f19601f820116820180604052508101906123b191906129ec565b50505050565b60606005600084815260200190815260200160002060008360018111156123e1576123e06132bd565b5b8152602001908152602001600020805480602002602001604051908101604052809291908181526020016000905b8282101561250457838290600052602060002090600602016040518060e0016040529081600082015481526020016001820160009054906101000a900473ffffffffffffffffffffffffffffffffffffffff1673ffffffffffffffffffffffffffffffffffffffff1673ffffffffffffffffffffffffffffffffffffffff1681526020016001820160149054906101000a900460ff1660018111156124b7576124b66132bd565b5b60018111156124c9576124c86132bd565b5b81526020016002820154815260200160038201548152602001600482015481526020016005820154815250508152602001906001019061240f565b50505050905092915050565b80600073ffffffffffffffffffffffffffffffffffffffff166001600083815260200190815260200160002060010160009054906101000a900473ffffffffffffffffffffffffffffffffffffffff1673ffffffffffffffffffffffffffffffffffffffff1614156125b7576040517f08c379a00000000000000000000000000000000000000000000000000000000081526004016125ae90612f6c565b60405180910390fd5b6001600083815260200190815260200160002060010160009054906101000a900473ffffffffffffffffffffffffffffffffffffffff1673ffffffffffffffffffffffffffffffffffffffff166323b872dd3330866040518463ffffffff1660e01b815260040161262a93929190612e86565b602060405180830381600087803b15801561264457600080fd5b505af1158015612658573d6000803e3d6000fd5b505050506040513d601f19601f8201168201806040525081019061267c91906129ec565b506126e083600360003373ffffffffffffffffffffffffffffffffffffffff1673ffffffffffffffffffffffffffffffffffffffff16815260200190815260200160002060008581526020019081526020016000205461290090919063ffffffff16565b600360003373ffffffffffffffffffffffffffffffffffffffff1673ffffffffffffffffffffffffffffffffffffffff168152602001908152602001600020600084815260200190815260200160002081905550505050565b6127416128e2565b73ffffffffffffffffffffffffffffffffffffffff1661275f611106565b73ffffffffffffffffffffffffffffffffffffffff16146127b5576040517f08c379a00000000000000000000000000000000000000000000000000000000081526004016127ac90612fac565b60405180910390fd5b600073ffffffffffffffffffffffffffffffffffffffff168173ffffffffffffffffffffffffffffffffffffffff161415612825576040517f08c379a000000000000000000000000000000000000000000000000000000000815260040161281c90612f4c565b60405180910390fd5b8073ffffffffffffffffffffffffffffffffffffffff1660008054906101000a900473ffffffffffffffffffffffffffffffffffffffff1673ffffffffffffffffffffffffffffffffffffffff167f8be0079c531659141344cd1fd0a4f28419497f9722a3daafe3b4186f6b6457e060405160405180910390a3806000806101000a81548173ffffffffffffffffffffffffffffffffffffffff021916908373ffffffffffffffffffffffffffffffffffffffff16021790555050565b600033905090565b600081836128f89190613170565b905092915050565b6000818361290e91906130c0565b905092915050565b60008135905061292581613456565b92915050565b60008151905061293a8161346d565b92915050565b60008135905061294f81613484565b92915050565b6000813590506129648161349b565b92915050565b600081359050612979816134ab565b92915050565b6000602082840312156129955761299461334a565b5b60006129a384828501612916565b91505092915050565b600080604083850312156129c3576129c261334a565b5b60006129d185828601612916565b92505060206129e285828601612940565b9150509250929050565b600060208284031215612a0257612a0161334a565b5b6000612a108482850161292b565b91505092915050565b600060208284031215612a2f57612a2e61334a565b5b6000612a3d84828501612940565b91505092915050565b60008060408385031215612a5d57612a5c61334a565b5b6000612a6b85828601612940565b9250506020612a7c85828601612916565b9150509250929050565b60008060408385031215612a9d57612a9c61334a565b5b6000612aab85828601612940565b9250506020612abc85828601612955565b9150509250929050565b600080600060608486031215612adf57612ade61334a565b5b6000612aed86828701612940565b9350506020612afe8682870161296a565b9250506040612b0f8682870161296a565b9150509250925092565b600080600060608486031215612b3257612b3161334a565b5b6000612b4086828701612955565b9350506020612b5186828701612940565b9250506040612b628682870161296a565b9150509250925092565b60008060008060808587031215612b8657612b8561334a565b5b6000612b9487828801612955565b9450506020612ba587828801612940565b9350506040612bb68782880161296a565b9250506060612bc78782880161296a565b91505092959194509250565b600060208284031215612be957612be861334a565b5b6000612bf78482850161296a565b91505092915050565b60008060408385031215612c1757612c1661334a565b5b6000612c258582860161296a565b9250506020612c3685828601612940565b9150509250929050565b6000612c4c8383612dbf565b60e08301905092915050565b612c61816131a4565b82525050565b612c70816131a4565b82525050565b6000612c8182613086565b612c8b818561309e565b9350612c9683613076565b8060005b83811015612cc7578151612cae8882612c40565b9750612cb983613091565b925050600181019050612c9a565b5085935050505092915050565b612cdd816131c2565b82525050565b612cec816131c2565b82525050565b612cfb81613209565b82525050565b612d0a81613209565b82525050565b6000612d1d6026836130af565b9150612d288261334f565b604082019050919050565b6000612d406014836130af565b9150612d4b8261339e565b602082019050919050565b6000612d636012836130af565b9150612d6e826133c7565b602082019050919050565b6000612d866020836130af565b9150612d91826133f0565b602082019050919050565b6000612da96016836130af565b9150612db482613419565b602082019050919050565b60e082016000820151612dd56000850182612e4d565b506020820151612de86020850182612c58565b506040820151612dfb6040850182612cf2565b506060820151612e0e6060850182612cd4565b506080820151612e216080850182612e4d565b5060a0820151612e3460a0850182612e4d565b5060c0820151612e4760c0850182612e4d565b50505050565b612e56816131ff565b82525050565b612e65816131ff565b82525050565b6000602082019050612e806000830184612c67565b92915050565b6000606082019050612e9b6000830186612c67565b612ea86020830185612c67565b612eb56040830184612e5c565b949350505050565b6000604082019050612ed26000830185612c67565b612edf6020830184612e5c565b9392505050565b60006020820190508181036000830152612f008184612c76565b905092915050565b6000602082019050612f1d6000830184612ce3565b92915050565b6000604082019050612f386000830185612ce3565b612f456020830184612c67565b9392505050565b60006020820190508181036000830152612f6581612d10565b9050919050565b60006020820190508181036000830152612f8581612d33565b9050919050565b60006020820190508181036000830152612fa581612d56565b9050919050565b60006020820190508181036000830152612fc581612d79565b9050919050565b60006020820190508181036000830152612fe581612d9c565b9050919050565b60006020820190506130016000830184612e5c565b92915050565b600060e08201905061301c600083018a612e5c565b6130296020830189612c67565b6130366040830188612d01565b6130436060830187612ce3565b6130506080830186612e5c565b61305d60a0830185612e5c565b61306a60c0830184612e5c565b98975050505050505050565b6000819050602082019050919050565b600081519050919050565b6000602082019050919050565b600082825260208201905092915050565b600082825260208201905092915050565b60006130cb826131ff565b91506130d6836131ff565b9250827fffffffffffffffffffffffffffffffffffffffffffffffffffffffffffffffff0382111561310b5761310a61328e565b5b828201905092915050565b6000613121826131ff565b915061312c836131ff565b9250817fffffffffffffffffffffffffffffffffffffffffffffffffffffffffffffffff04831182151516156131655761316461328e565b5b828202905092915050565b600061317b826131ff565b9150613186836131ff565b9250828210156131995761319861328e565b5b828203905092915050565b60006131af826131df565b9050919050565b60008115159050919050565b6000819050919050565b60008190506131da82613442565b919050565b600073ffffffffffffffffffffffffffffffffffffffff82169050919050565b6000819050919050565b6000613214826131cc565b9050919050565b6000613226826131ff565b9150600082141561323a5761323961328e565b5b600182039050919050565b6000613250826131ff565b91507fffffffffffffffffffffffffffffffffffffffffffffffffffffffffffffffff8214156132835761328261328e565b5b600182019050919050565b7f4e487b7100000000000000000000000000000000000000000000000000000000600052601160045260246000fd5b7f4e487b7100000000000000000000000000000000000000000000000000000000600052602160045260246000fd5b7f4e487b7100000000000000000000000000000000000000000000000000000000600052603160045260246000fd5b7f4e487b7100000000000000000000000000000000000000000000000000000000600052603260045260246000fd5b600080fd5b7f4f776e61626c653a206e6577206f776e657220697320746865207a65726f206160008201527f6464726573730000000000000000000000000000000000000000000000000000602082015250565b7f546f6b656e20646f6573206e6f74206578697374000000000000000000000000600082015250565b7f496e73756666696369656e742066756e64730000000000000000000000000000600082015250565b7f4f776e61626c653a2063616c6c6572206973206e6f7420746865206f776e6572600082015250565b7f42616c616e6365206e6f742073756666696369656e7400000000000000000000600082015250565b60028110613453576134526132bd565b5b50565b61345f816131a4565b811461346a57600080fd5b50565b613476816131b6565b811461348157600080fd5b50565b61348d816131c2565b811461349857600080fd5b50565b600281106134a857600080fd5b50565b6134b4816131ff565b81146134bf57600080fd5b5056fea2646970667358221220e9dd09f7c8459a868bc0f33953b231287d226c900a00b59ce61c71a4b9e9891564736f6c63430008070033",
  "immutableReferences": {},
  "source": "pragma solidity ^0.8.0;\npragma experimental ABIEncoderV2;\n\nimport \"./wallet.sol\";\ncontract Dex is Wallet {\n\n    enum Side {\n        BUY,\n        SELL\n    }\n\n    struct Order {\n        uint id;\n        address trader;\n        Side side;\n        bytes32 ticker;\n        uint amount;\n        uint price;\n        uint filled;\n    }\n\n    uint public nextOrderId=0;\n\n    mapping(bytes32 => mapping(uint => Order[])) public orderBook;\n\n    function getOrderBook(bytes32 ticker, Side side) view public returns(Order[] memory) {\n        return orderBook[ticker][uint(side)];\n    }\n\n    function createLimitOrder(Side side, bytes32 ticker, uint amount, uint price) public{\n        if(side == Side.BUY){\n            require(balances[msg.sender][\"ETH\"] >= amount * price);\n        }\n        else if(side == Side.SELL){\n            require(balances[msg.sender][ticker] >= amount);\n        }\n\n        Order[] storage orders = orderBook[ticker][uint(side)];\n        orders.push(Order(nextOrderId, msg.sender, side, ticker, amount, price, 0));\n\n        uint i = orders.length > 0 ? orders.length - 1 : 0;\n        //Bubble sort\n        if(side == Side.BUY){\n            \n            while(i > 0){\n                if(orders[i-1].price > orders[i].price){\n                    break;\n                }\n                Order memory orderToMove = orders[i];\n                orders[i] = orders[i-1];\n                orders[i-1] = orderToMove;\n                i--;\n            }\n        }\n        else if(side == Side.SELL){\n            while(i > 0){\n                if(orders[i-1].price < orders[i].price){\n                    break;\n                }\n                Order memory orderToMove = orders[i];\n                orders[i] = orders[i-1];\n                orders[i-1] = orderToMove;\n                i--;\n            }\n        }\n\n\n        nextOrderId++;\n    }\n\n     /* \n        Deposits eth into the wallet of the caller\n     */\n    function depositEth() payable public {\n        balances[msg.sender][\"ETH\"] = balances[msg.sender][\"ETH\"] + (msg.value); \n    }\n\n    function createMarketOrder(Side side, bytes32 ticker, uint amount) public{\n        if(side == Side.BUY) {\n            require(balances[msg.sender][ticker] >= amount, \"Insufficient funds\");\n        }\n\n        uint orderBookSide;\n        if(side == Side.BUY){\n            orderBookSide = 1;\n        }\n        else {\n            orderBookSide = 0;\n        }\n        Order[] storage orders = orderBook[ticker][orderBookSide];\n\n        uint totalFilled = 0;\n\n        for(uint256 i=0; i<orders.length && totalFilled < amount; i++){\n            uint leftToFill = amount - totalFilled;\n            uint availableToFill = orders[i].amount - orders[i].filled;\n            uint filled  = 0;\n            if(availableToFill > leftToFill) {\n                filled = leftToFill;  // Fill entire market order\n            }\n            else {\n                filled = availableToFill;  // Fill as much as available in order[i]\n            }\n\n            totalFilled = totalFilled + filled;\n            orders[i].filled = orders[i].filled + filled;\n            uint cost = filled * orders[i].price;\n\n            if(side == Side.BUY) {\n                require(balances[msg.sender][\"ETH\"] >= filled  * orders[i].price);\n                balances[msg.sender][ticker] = balances[msg.sender][ticker] + filled;\n                balances[msg.sender][\"ETH\"] = balances[msg.sender][\"ETH\"] - cost;\n                \n                balances[orders[i].trader][ticker] = balances[orders[i].trader][ticker] - filled;\n                balances[orders[i].trader][\"ETH\"] = balances[orders[i].trader][\"ETH\"] + cost;\n            }\n            else if(side == Side.SELL){\n                balances[msg.sender][ticker] = balances[msg.sender][ticker] - filled;\n                balances[msg.sender][\"ETH\"] = balances[msg.sender][\"ETH\"] + cost;\n                \n                balances[orders[i].trader][ticker] = balances[orders[i].trader][ticker] + filled;\n                balances[orders[i].trader][\"ETH\"] = balances[orders[i].trader][\"ETH\"] - cost;\n            }\n        }\n\n        while (orders.length > 0 && orders[0].filled == orders[0].amount) {\n            for (uint256 i = 0; i < orders.length - 1; i++) {\n                orders[i] = orders[i+1];\n            }\n            orders.pop();\n        }\n    }\n}",
  "sourcePath": "/Users/vineet/ethereum-course-advanced/dex/contracts/dex.sol",
  "compiler": {
    "name": "solc",
    "version": "0.8.7+commit.e28d00a7.Emscripten.clang"
  },
  "schemaVersion": "3.3.4",
  "updatedAt": "2021-09-19T18:57:11.306Z",
  "networkType": "ethereum",
  "devdoc": {
    "kind": "dev",
    "methods": {
      "owner()": {
        "details": "Returns the address of the current owner."
      },
      "renounceOwnership()": {
        "details": "Leaves the contract without owner. It will not be possible to call `onlyOwner` functions anymore. Can only be called by the current owner. NOTE: Renouncing ownership will leave the contract without an owner, thereby removing any functionality that is only available to the owner."
      },
      "transferOwnership(address)": {
        "details": "Transfers ownership of the contract to a new account (`newOwner`). Can only be called by the current owner."
      }
    },
    "version": 1
  },
  "userdoc": {
    "kind": "user",
    "methods": {},
    "version": 1
  }
}